:03000000020A9160
:0C0A9100787FE4F6D8FD758160020AD879
:100C91006E756D3A20256C640D0A00E5BD93E589FA
:100CA1008DE6B8A9E5BAA6E4B8BA3A20252E32668F
:030CB1000D0A0029
:0C0CB400040C0000000004084029999A7C
:0D00060075BA8090FE00E4F0A3F0F5BA2278
:0C001600759401E4F59375B202F5B12277
:1009BE00120006120016120CF1120CCF120C34306B
:1009CE000A5CE50F2401F50FE4350EF50EE4350D46
:1009DE00F50DE4350CF50CAF0BAE0AAD09AC087B8A
:1009EE00CD7ACC79CC783D12002D8F0B8E0A8D09E5
:1009FE008C087BFF7A0C7991850F4A850E49850DFF
:100A0E0048850C471205B17BFF7A0C799C850B4A01
:100A1E00850A498509488508471205B1C20A300979
:100A2E009BE50F24FFF50FE50E34FFF50EE50D34B3
:100A3E00FFF50DE50C34FFF50CAF0BAE0AAD09ACAE
:100A4E00087BCD7ACC79CC783D1200298F0B8E0A9B
:100A5E008D098C087BFF7A0C7991850F4A850E499A
:100A6E00850D48850C471205B17BFF7A0C799C8564
:100A7E000B4A850A498509488508471205B1C209FE
:030A8E000209CA90
:080BF5008F138E128D118C107C
:100BFD00E4FFFEFDFCAB13AA12A911A810D3120538
:100C0D00084023007F207E28DEFEDFFCE51324FF55
:100C1D00F513E51234FFF512E51134FFF511E5106A
:060C2D0034FFF51080CA3F
:010C3300229E
:060D0400120BF5B2802283
:040CC000C10AC1099B
:0B0CF100D2AFD2A8D288D2AAD28A22A9
:03000300020D0FDC
:030D0F00D20A32D3
:03001300020D12C9
:030D1200D20932D1
:0F0CE2004C45445F4F4E004C45445F4F46460023
:0A0CC400C10CC10B01220001330036
:03002300020B9F2E
:100B9F00C0E0C0D075D000C000C007309904C29922
:050BAF00C20C30983873
:100BB400859960E5606423600CAF22052274232FBD
:100BC400F8A6608021753300E533C3952250127472
:100BD400232533F8E6FF74342533F8A6070533805C
:080BE400E7D20B752200C29854
:090BEC00D007D000D0D0D0E032D7
:100CCF00759850438E1575D7CC75D6FFC20CD2AC24
:030CDF00D2AF226F
:080CFC00200CFDD20C8F99229F
:100C6C008B148A158916AB14AA15A9161204B06038
:100C7C00130516E5167002051514F91204B0FF12CF
:050C8C000CFC80E222D7
:100C3400300B347547FF75480C7549E27B007A0028
:100C44007934120B1DE94A4B6002C2807547FF7567
:100C5400480C7549E97B007A007934120B1DE94A86
:080C64004B6002D280C20B229A
:050D0A00AE07020CFC25
:10002600020153E86480F8E933E83360110460F0B4
:10003600ED33EC337009E8FCE9FDEAFEEBFF220440
:1000460060DED3EB9FEA9EE99DE8C2E78CF0C2F73B
:1000560095F0400CE8CCF8E9CDF9EACEFAEBCFFB07
:1000660012011E85D0F05804700320D5B3E8047041
:10007600075002B2D502015D92D5EC0460F7E4CCDC
:10008600C0E0C398F8603B94186008400DD0E0FBD0
:10009600020135E4FBFAC9FC8028E830E406E4C92D
:1000A600FBE4CAFCE830E305E4C9CACBFCE8540724
:1000B6006010F8C3E913F9EA13FAEB13FBEC13FC2F
:1000C600D8F130F52FC3E49CFCEF9BFFEE9AFEEDD2
:1000D60099FDD0E0FBEF4E4D4C701222DB0302017E
:1000E6005AEC2CFCEF33FFEE33FEED33FDED30E73B
:1000F600EB020135EF2BFFEE3AFEED39FDD0E0FBCA
:1001060050130BBB000302015DED13FDEE13FEEF72
:0801160013FFEC13FC0201359C
:10054F00E55B2447F8E6055B2278443007027847DD
:10055F00E475F0011205190204B02000EB7F2ED2D2
:10056F00008018EF540F2490D43440D4FF30040B84
:10057F00EF24BFB41A0050032461FFE55C6002153D
:10058F005C055FE55F7002055E30070D7844E4752A
:10059F00F001120519EF0204F6020D0A7403D207D7
:1005AF008003E4C207F55B8B448A458946E4F55C1A
:1005BF00F55EF55FE55C60077F2012058A80F575B3
:1005CF005DFFC201C200C202C203C205C206C20859
:1005DF00120558FF700D3007057F0012059BAF5FA6
:1005EF00AE5E22B4255FC2D5C204120558FF24D0D7
:1005FF00B40A00501A75F00A785C30D50508B6FFBA
:10060F000106C6A426F620D5047002D20380D92491
:10061F00CFB41A00EF5004C2E5D204020888D20109
:10062F0080C6D20080C0D20280BCD2D580BAD2059B
:10063F0080B47F2012058A2002077401B55C004048
:10064F00F112054FFF12058A0205C3D208D20680A8
:10065F009512054FFB12054FFA12054FF94A4B70D1
:10066F0006797F7A097BFF20022EE55C602A7E00E7
:10067F008E827583001204C960060EEE655D70F000
:10068F00C2D5EBC0E0EAC0E0E9C0E0EE1208E8D066
:10069F00E0F9D0E0FAD0E0FB1204B0FF60AAEBC0A3
:1006AF00E0EAC0E0E9C0E012058AD0E02401F9D009
:1006BF00E03400FAD0E0FBE55D0460DCD55DD98065
:1006CF0087D20280A21208CB60F7E55D7001041299
:1006DF000168A95D600DE55D600914F55D12097291
:1006EF00EF60F3EA30E702F404C3995077EAF42598
:1006FF005D0430E701E404F55D800D1208CB60C1A5
:10070F00EA055D255D120168EA785AF630E701E4E3
:10071F00255D04D55D04200501141208E8E4C0E04E
:10072F00120972785AE6601320E70714F612057261
:10073F00802204F6D0E014C0E07F00120572E55D60
:10074F006007120569155D800B300503120569D02E
:10075F00E00205C3D0E00480C51208CB60A0E55DC0
:10076F0004120168785AEAF6E55D2005026001047B
:05077F0024041208E84B
:1007840074FF04C0E0120972120572E55D200502CF
:100794006003120569D0E0B55DE87F4512057C78F9
:1007A4005AE67F2B30E7047F2DF404C0E012058A5B
:1007B400D0E075F00A84C0F0120573D0E01205731E
:1007C4000205C3791080027908C206C2088008D2E3
:1007D400D5790A8004790AC2D5E55D047002F55D15
:1007E400E4FAFDFEFF12054FFC7B082001131205FD
:1007F4004FFD7B1030000A12054FFE12054FFF7BA0
:1008040020EC3382D592D55013C3E43000069FFF09
:10081400E49EFEE42001039DFDE49CFCE4CBF8C2CD
:1008240001EC700CCFCECDCCE824F8F870F380172F
:10083400C3EF33FFEE33FEED33FDEC33FCEB33FB60
:10084400994002FB0FD8E9EB300105F8D0E0C44829
:10085400B201C0E00AEC4D4E4F78207B0070C2EA32
:10086400B55D0040BCC0E01208EAD0F0D0E0200141
:1008740004C4C0E0C4B201C0F0120573D0F0D5F0D6
:10088400EB0205C312052906605307C75806314C0D
:10089400062D4207CB4F07D34407D34906464307E7
:1008A400D955070A4607684506D447099F500635B7
:1008B4002D06392E065C2B063D23065A2009882A6C
:1008C40005F54800000654E55DB4FF03755D0612A6
:1008D400054FFC12054FFD12054FFE12054FFF7820
:1008E40053020197790AA2D5200314300509B910DF
:1008F400020404B9080104A2D52006025001042010
:1009040002689202B55C005034C0E07F20300319C5
:100914007F30A20272067205500F120941C202C250
:1009240006C205C2087F30800F300503E9C0E0121B
:10093400058A300503D0E0F9D0E0B55CCC3005176A
:100944007F30B9100C12058A7F583004077F7880F5
:1009540003B9080312058A3002057F2D02058A7F38
:10096400202008F87F2B2006F322920280CF7F00FC
:10097400B4070050052453F8E6FF22286E756C6C0A
:100984002900D20112054F3001F8C201785C30D53C
:100994000108F60205F52D5043495812054F24036A
:1009A400B405004001E490099A9312057B743A124D
:0A09B400057BD203755C040207C73F
:10011E00E9D2E7C933E833F892D5EDD2E7CD33EC27
:07012E0033FC5002B2D522A0
:10013500EC30E7100FBF000C0EBE00080DBD00042B
:100145000BEB6014A2D5EB13FCED92E7FD2274FFD7
:10015500FCFDFEFF22E480F8A2D574FF13FC7D8030
:03016500E480EF44
:10016800F920E72824F950037907E4F42402FB185E
:10017800DBFDE624FB5014E9600DE4F618E604F60E
:0F018800B40A08E4F6D9F57401F60A22C2D522AA
:10019700ED33EC3392D5FA602AB4FF33EDC2E77B37
:1001A700FF60067A0179BCE4227A0179C520D5047B
:1001B7007A0179C0224E614E002B494E46002D49E7
:1001C7004E4600E47A08F608DAFC7B00740722E85A
:1001D700C0E0ECC0E0EDC0E0EEC0E0EFC0E0EA75E3
:1001E700F010A4CAABF075F04DA42BFBE435F0FC7E
:1001F700EA2410FAEB34C5FBEC34D9FCEDC2E7FF77
:1002070075F056A4F42411C5F0F434C58FF0A42A70
:10021700E5F03BE43CF620E714120470D0E0FFD091
:10022700E0FED0E0FDD0E0FC1203A38014F404123A
:100237000470D0E0FFD0E0FED0E0FDD0E0FC120279
:100247009AD0E0F8E6FAEDD2E7CD33EC332482FB1F
:10025700E4C3CF33CFCE33CECD33CD33DBF37B0700
:1002670075F00A846004F6081B0AE5F0F6088FF0BB
:10027700740AA4FFACF08EF0740AA42CFEACF05004
:10028700010C8DF0740AA42CFDE435F0F608DBDED2
:03029700740722C7
:10029A00EC4D6011E8497017ED33EC3304600DE45E
:1002AA00FCFFFEFD22E933E8330470F80201531221
:1002BA00011E58046009E4CC248150062850090222
:1002CA00015D28400302015AC0E0EB4A7044B9803C
:1002DA0006D0E0FB020149EF4E701CBD8008EBFF1F
:1002EA00EAFEE9FD80EBE98DF0A4FEE5F002038366
:1002FA00E9CDF9EAFEEBFFEF89F0A4FCE5F0CE893F
:10030A00F0A42EFFE435F0CD89F0A42DFEE435F0FB
:10031A008067EF4E7005BD80D780C3EF8BF0A4AC29
:10032A00F0EE8BF0A42CFCE435F0F8EF8AF0A42C64
:10033A00E5F038FCE433CB8DF0A42CFCE5F03BF877
:10034A00EE8AF0A42CFCE5F038F8E433CF89F0A467
:10035A002CFCE5F038CF3400CE89F0A42FFFE5F06D
:10036A003EFEE433C98DF0A42EFEE5F039CD8AF0C5
:10037A00A42FFFE5F03EFEE43DFD33D0E0FB50073D
:10038A000BBB000F02015DEC2CFCEF33FFEE33FEDA
:06039A00ED33FD02013508
:1003A00002015DEC5D046005E8590470030201532D
:1003B00012011E580460F6EC4860F2EC7004FDFE79
:1003C000FF22C860DB2481C85009C3986002500630
:1003D00002015A9850CAF582E9294B4A7005AB824E
:1003E00002014975F0007C1A7880C3EF9BEE9AED0C
:1003F00099400DC3EF9BFFEE9AFEED99FDE842F0A8
:10040000DC23ACF0D0E0FFD0E0FED0E0FDAB8220FA
:10041000E7101BEB60BAEC2CFCEF33FFEE33FEED84
:1004200033FD020135E803F830E705C0F075F00050
:10043000EF2FFFEE33FEED33FD40B830E7C280AA68
:100440003F8000004120000042C80000447A0000C4
:10045000461C400047C35000497424004B18968046
:100460004CBEBC205A0E1BCA6753C21C749DC5AE3D
:10047000FB60065407601C232312049EEB54386073
:100480000912048A12049912029AECF8EDF9EEFAB4
:10049000EFCB22EB12049980F1543803241C900412
:1004A00040FE93FC0EEE93FD0EEE930ECE93FF22D4
:100A9D000209BEE493A3F8E493A34003F68001F2A8
:100AAD0008DFF48029E493A3F85407240CC8C3335A
:100ABD00C4540F4420C8834004F456800146F6DF29
:100ACD00E4800B0102040810204080900CB4E47EF9
:100ADD00019360BCA3FF543F30E509541FFEE4931E
:100AED00A360010ECF54C025E060A840B8E493A3E5
:100AFD00FAE493A3F8E493A3C8C582C8CAC583CA10
:100B0D00F0A3C8C582C8CAC583CADFE9DEE780BEC7
:010CCE000025
:1004B000BB010689828A83E0225002E722BBFE024A
:0904C000E32289828A83E493227D
:1004C900BB010CE58229F582E5833AF583E02250E8
:1004D90006E92582F8E622BBFE06E92582F8E22232
:0D04E900E58229F582E5833AF583E493224C
:1004F600BB010689828A83F0225002F722BBFE01E5
:02050600F322DE
:10050800EB9FF5F0EA9E42F0E99D42F0E89C45F049
:0105180022C0
:10051900FAE6FB0808E6F925F0F618E6CA3AF622E3
:10052900D083D082F8E4937012740193700DA3A361
:1005390093F8740193F5828883E473740293686075
:06054900EFA3A3A380DF75
:100B1D008B448A458946AB47AA48A9491204B0605F
:100B2D0063AB44AA45A9461204B0605F85474A8568
:100B3D00484B85494C8B4D8A4E894FAB4AAA4BA9E0
:100B4D004C1204B0FF6023AB4DAA4EA94F1204B056
:100B5D006F701704254CF54CE4354BF54B7401259E
:100B6D004FF54FE4354EF54E80D1AB4AAA4BA94C0B
:100B7D001204B07002800D74012546F546E435452A
:100B8D00F545809DAB44AA45A946227B007A0079A4
:020B9D00002234
:00000001FF
